:020000040000FA
:100000000128CA2095201A2009202328F42006213F
:1000100001280330AA000030AB000030B200F130FC
:10002000B3003308AB02031900300130AA023208D2
:10003000AA0208000030A3000030A4000030A50090
:100040000030A60008002A08A70001302702031983
:1000500036280230270203193D28033027020319EE
:1000600044283228E9204B28062801280630A6001B
:100070000530A5000230A40032280230A60001306D
:10008000A5000530A40032280830A6000630A500DF
:100090000730A40032282B08A8004E28643028021C
:1000A00003185E2853280A302802031861285828AC
:1000B00001302802031864285D280628A8007D2046
:1000C0004E28A80072205328A80067205828013025
:1000D000A6070A30260283186E2894280A30A60242
:1000E000722894280130A5070A3025028318792840
:1000F00094280A30A5027D2894280130A4070A30EC
:1001000024028318842894280A30A402882894287A
:100110000130A3070A3023020308860083189128C0
:1001200094280A30A302942808009D20A320A92027
:10013000AE20B420B920BE20080000308700E220A5
:100140000800071408009D20870038308800E2204E
:1001500008009D200F308800E22008009D2001301B
:100160008800E220BE2008009D2006308800E220A2
:1001700008009D2040308800E22008009D2080304B
:100180008800E220A12008009D20C0308800E220E5
:10019000A1200800D9200030870000308800061414
:1001A000D620003087000030880008008312031337
:1001B0000800831603130800831203170800831630
:1001C000031708000715E62007110800A00BE62812
:1001D000080052300321553003214E3003212A30CC
:1001E00003212A30032108002308012103212408C8
:1001F00001210321250801210321260801210321D2
:100200000800303E08008800E2200800A00B062904
:06021000A10B0629080005
:04021600003400347C
:00000001FF
